{
  "contractName": "Auction",
  "abi": [
    {
      "inputs": [
        {
          "internalType": "string",
          "name": "_name",
          "type": "string"
        },
        {
          "internalType": "uint256",
          "name": "_timeoutPeriod",
          "type": "uint256"
        }
      ],
      "stateMutability": "nonpayable",
      "type": "constructor"
    },
    {
      "anonymous": false,
      "inputs": [
        {
          "indexed": false,
          "internalType": "address",
          "name": "highBidder",
          "type": "address"
        },
        {
          "indexed": false,
          "internalType": "uint256",
          "name": "highBid",
          "type": "uint256"
        }
      ],
      "name": "Bid",
      "type": "event"
    },
    {
      "inputs": [],
      "name": "auctionEnd",
      "outputs": [
        {
          "internalType": "uint256",
          "name": "",
          "type": "uint256"
        }
      ],
      "stateMutability": "view",
      "type": "function"
    },
    {
      "inputs": [],
      "name": "auctionEnded",
      "outputs": [
        {
          "internalType": "bool",
          "name": "",
          "type": "bool"
        }
      ],
      "stateMutability": "view",
      "type": "function"
    },
    {
      "inputs": [
        {
          "internalType": "address",
          "name": "",
          "type": "address"
        }
      ],
      "name": "balanceOf",
      "outputs": [
        {
          "internalType": "uint256",
          "name": "",
          "type": "uint256"
        }
      ],
      "stateMutability": "view",
      "type": "function"
    },
    {
      "inputs": [],
      "name": "highBidder",
      "outputs": [
        {
          "internalType": "address",
          "name": "",
          "type": "address"
        }
      ],
      "stateMutability": "view",
      "type": "function"
    },
    {
      "inputs": [],
      "name": "name",
      "outputs": [
        {
          "internalType": "string",
          "name": "",
          "type": "string"
        }
      ],
      "stateMutability": "view",
      "type": "function"
    },
    {
      "inputs": [],
      "name": "seller",
      "outputs": [
        {
          "internalType": "address",
          "name": "",
          "type": "address"
        }
      ],
      "stateMutability": "view",
      "type": "function"
    },
    {
      "inputs": [],
      "name": "timeoutPeriod",
      "outputs": [
        {
          "internalType": "uint256",
          "name": "",
          "type": "uint256"
        }
      ],
      "stateMutability": "view",
      "type": "function"
    },
    {
      "inputs": [
        {
          "internalType": "uint256",
          "name": "amount",
          "type": "uint256"
        }
      ],
      "name": "bid",
      "outputs": [],
      "stateMutability": "payable",
      "type": "function"
    },
    {
      "inputs": [],
      "name": "withdraw",
      "outputs": [
        {
          "internalType": "bool",
          "name": "",
          "type": "bool"
        }
      ],
      "stateMutability": "nonpayable",
      "type": "function"
    },
    {
      "inputs": [],
      "name": "endAuction",
      "outputs": [],
      "stateMutability": "nonpayable",
      "type": "function"
    }
  ],
  "bytecode": "0x60806040523480156200001157600080fd5b506040516200127f3803806200127f833981810160405281019062000037919062000235565b600a8251116200007e576040517f08c379a00000000000000000000000000000000000000000000000000000000081526004016200007590620002b6565b60405180910390fd5b816001908051906020019062000096929190620000fc565b5080600281905550336000806101000a81548173ffffffffffffffffffffffffffffffffffffffff021916908373ffffffffffffffffffffffffffffffffffffffff16021790555060025442620000ee919062000348565b600381905550505062000532565b8280546200010a90620003e5565b90600052602060002090601f0160209004810192826200012e57600085556200017a565b82601f106200014957805160ff19168380011785556200017a565b828001600101855582156200017a579182015b82811115620001795782518255916020019190600101906200015c565b5b5090506200018991906200018d565b5090565b5b80821115620001a85760008160009055506001016200018e565b5090565b6000620001c3620001bd8462000301565b620002d8565b905082815260208101848484011115620001dc57600080fd5b620001e9848285620003af565b509392505050565b600082601f8301126200020357600080fd5b815162000215848260208601620001ac565b91505092915050565b6000815190506200022f8162000518565b92915050565b600080604083850312156200024957600080fd5b600083015167ffffffffffffffff8111156200026457600080fd5b6200027285828601620001f1565b925050602062000285858286016200021e565b9150509250929050565b60006200029e60108362000337565b9150620002ab82620004ef565b602082019050919050565b60006020820190508181036000830152620002d1816200028f565b9050919050565b6000620002e4620002f7565b9050620002f282826200041b565b919050565b6000604051905090565b600067ffffffffffffffff8211156200031f576200031e620004af565b5b6200032a82620004de565b9050602081019050919050565b600082825260208201905092915050565b60006200035582620003a5565b91506200036283620003a5565b9250827fffffffffffffffffffffffffffffffffffffffffffffffffffffffffffffffff038211156200039a576200039962000451565b5b828201905092915050565b6000819050919050565b60005b83811015620003cf578082015181840152602081019050620003b2565b83811115620003df576000848401525b50505050565b60006002820490506001821680620003fe57607f821691505b6020821081141562000415576200041462000480565b5b50919050565b6200042682620004de565b810181811067ffffffffffffffff82111715620004485762000447620004af565b5b80604052505050565b7f4e487b7100000000000000000000000000000000000000000000000000000000600052601160045260246000fd5b7f4e487b7100000000000000000000000000000000000000000000000000000000600052602260045260246000fd5b7f4e487b7100000000000000000000000000000000000000000000000000000000600052604160045260246000fd5b6000601f19601f8301169050919050565b7f506f6f72206465736372697074696f6e00000000000000000000000000000000600082015250565b6200052381620003a5565b81146200052f57600080fd5b50565b610d3d80620005426000396000f3fe6080604052600436106100915760003560e01c8063454a2ab311610059578063454a2ab31461016d5780636cea6b821461018957806370a08231146101b457806386433374146101f1578063fe67a54b1461021c57610091565b806306fdde031461009657806308551a53146100c15780632a24f46c146100ec5780633ccfd60b146101175780633ce123dc14610142575b600080fd5b3480156100a257600080fd5b506100ab610233565b6040516100b8919061099e565b60405180910390f35b3480156100cd57600080fd5b506100d66102c1565b6040516100e3919061093f565b60405180910390f35b3480156100f857600080fd5b506101016102e5565b60405161010e9190610a40565b60405180910390f35b34801561012357600080fd5b5061012c6102eb565b6040516101399190610983565b60405180910390f35b34801561014e57600080fd5b5061015761040f565b604051610164919061093f565b60405180910390f35b61018760048036038101906101829190610824565b610435565b005b34801561019557600080fd5b5061019e610626565b6040516101ab9190610a40565b60405180910390f35b3480156101c057600080fd5b506101db60048036038101906101d691906107fb565b61062c565b6040516101e89190610a40565b60405180910390f35b3480156101fd57600080fd5b50610206610644565b6040516102139190610983565b60405180910390f35b34801561022857600080fd5b50610231610657565b005b6001805461024090610b48565b80601f016020809104026020016040519081016040528092919081815260200182805461026c90610b48565b80156102b95780601f1061028e576101008083540402835291602001916102b9565b820191906000526020600020905b81548152906001019060200180831161029c57829003601f168201915b505050505081565b60008054906101000a900473ffffffffffffffffffffffffffffffffffffffff1681565b60035481565b600080600560003373ffffffffffffffffffffffffffffffffffffffff1673ffffffffffffffffffffffffffffffffffffffff1681526020019081526020016000205490506000811115610406576000600560003373ffffffffffffffffffffffffffffffffffffffff1673ffffffffffffffffffffffffffffffffffffffff168152602001908152602001600020819055503373ffffffffffffffffffffffffffffffffffffffff166108fc829081150290604051600060405180830381858888f193505050506104055780600560003373ffffffffffffffffffffffffffffffffffffffff1673ffffffffffffffffffffffffffffffffffffffff16815260200190815260200160002081905550600091505061040c565b5b60019150505b90565b600460019054906101000a900473ffffffffffffffffffffffffffffffffffffffff1681565b6003544210610479576040517f08c379a000000000000000000000000000000000000000000000000000000000815260040161047090610a20565b60405180910390fd5b60056000600460019054906101000a900473ffffffffffffffffffffffffffffffffffffffff1673ffffffffffffffffffffffffffffffffffffffff1673ffffffffffffffffffffffffffffffffffffffff1681526020019081526020016000205481101561051d576040517f08c379a000000000000000000000000000000000000000000000000000000000815260040161051490610a00565b60405180910390fd5b34600560003373ffffffffffffffffffffffffffffffffffffffff1673ffffffffffffffffffffffffffffffffffffffff168152602001908152602001600020600082825461056c9190610a77565b9250508190555033600460016101000a81548173ffffffffffffffffffffffffffffffffffffffff021916908373ffffffffffffffffffffffffffffffffffffffff160217905550600254426105c29190610a77565b6003819055507fe684a55f31b79eca403df938249029212a5925ec6be8012e099b45bc1019e5d2600460019054906101000a900473ffffffffffffffffffffffffffffffffffffffff168260405161061b92919061095a565b60405180910390a150565b60025481565b60056020528060005260406000206000915090505481565b600460009054906101000a900460ff1681565b60035442101561069c576040517f08c379a0000000000000000000000000000000000000000000000000000000008152600401610693906109c0565b60405180910390fd5b600460009054906101000a900460ff16156106ec576040517f08c379a00000000000000000000000000000000000000000000000000000000081526004016106e3906109e0565b60405180910390fd5b6001600460006101000a81548160ff02191690831515021790555060008054906101000a900473ffffffffffffffffffffffffffffffffffffffff1673ffffffffffffffffffffffffffffffffffffffff166108fc60056000600460019054906101000a900473ffffffffffffffffffffffffffffffffffffffff1673ffffffffffffffffffffffffffffffffffffffff1673ffffffffffffffffffffffffffffffffffffffff168152602001908152602001600020549081150290604051600060405180830381858888f193505050501580156107ce573d6000803e3d6000fd5b50565b6000813590506107e081610cd9565b92915050565b6000813590506107f581610cf0565b92915050565b60006020828403121561080d57600080fd5b600061081b848285016107d1565b91505092915050565b60006020828403121561083657600080fd5b6000610844848285016107e6565b91505092915050565b61085681610acd565b82525050565b61086581610adf565b82525050565b600061087682610a5b565b6108808185610a66565b9350610890818560208601610b15565b61089981610bd8565b840191505092915050565b60006108b1601683610a66565b91506108bc82610be9565b602082019050919050565b60006108d4602383610a66565b91506108df82610c12565b604082019050919050565b60006108f7602583610a66565b915061090282610c61565b604082019050919050565b600061091a601083610a66565b915061092582610cb0565b602082019050919050565b61093981610b0b565b82525050565b6000602082019050610954600083018461084d565b92915050565b600060408201905061096f600083018561084d565b61097c6020830184610930565b9392505050565b6000602082019050610998600083018461085c565b92915050565b600060208201905081810360008301526109b8818461086b565b905092915050565b600060208201905081810360008301526109d9816108a4565b9050919050565b600060208201905081810360008301526109f9816108c7565b9050919050565b60006020820190508181036000830152610a19816108ea565b9050919050565b60006020820190508181036000830152610a398161090d565b9050919050565b6000602082019050610a556000830184610930565b92915050565b600081519050919050565b600082825260208201905092915050565b6000610a8282610b0b565b9150610a8d83610b0b565b9250827fffffffffffffffffffffffffffffffffffffffffffffffffffffffffffffffff03821115610ac257610ac1610b7a565b5b828201905092915050565b6000610ad882610aeb565b9050919050565b60008115159050919050565b600073ffffffffffffffffffffffffffffffffffffffff82169050919050565b6000819050919050565b60005b83811015610b33578082015181840152602081019050610b18565b83811115610b42576000848401525b50505050565b60006002820490506001821680610b6057607f821691505b60208210811415610b7457610b73610ba9565b5b50919050565b7f4e487b7100000000000000000000000000000000000000000000000000000000600052601160045260246000fd5b7f4e487b7100000000000000000000000000000000000000000000000000000000600052602260045260246000fd5b6000601f19601f8301169050919050565b7f41756374696f6e206e6f742079657420656e6465642e00000000000000000000600082015250565b7f61756374696f6e456e642068617320616c7265616479206265656e2063616c6c60008201527f65642e0000000000000000000000000000000000000000000000000000000000602082015250565b7f42696420616d6f756e7420646f6573206e6f742072656163682068696768657360008201527f7420626964000000000000000000000000000000000000000000000000000000602082015250565b7f41756374696f6e20697320656e64656400000000000000000000000000000000600082015250565b610ce281610acd565b8114610ced57600080fd5b50565b610cf981610b0b565b8114610d0457600080fd5b5056fea26469706673582212207d835281a114d40c2bf93a5ab07a2a44485c812dda1c7cbe95bcd94b5bcb44f064736f6c63430008030033",
  "immutableReferences": {},
  "source": "// SPDX-License-Identifier: GPL-3.0\npragma solidity ^0.8.3;\n\ncontract Auction {\n    address public seller;\n\n    string public name;\n    uint256 public timeoutPeriod;\n    uint256 public auctionEnd;\n    bool public auctionEnded;\n\n    address public highBidder;\n    mapping(address => uint256) public balanceOf;\n\n    event Bid(address highBidder, uint256 highBid);\n\n    constructor(string memory _name, uint256 _timeoutPeriod) {\n        require(bytes(_name).length > 10, \"Poor description\");\n        name = _name;\n        timeoutPeriod = _timeoutPeriod;\n        seller = msg.sender;\n        auctionEnd = block.timestamp + timeoutPeriod;\n    }\n\n    function bid(uint256 amount) public payable {\n        require(block.timestamp < auctionEnd, \"Auction is ended\");\n        require(\n            amount >= balanceOf[highBidder],\n            \"Bid amount does not reach highest bid\"\n        );\n\n        balanceOf[msg.sender] += msg.value;\n        //require(\n        //    balanceOf[msg.sender] == amount,\n        //    \"Escrowed amount is different of bid\"\n        //);\n\n        highBidder = msg.sender;\n\n        auctionEnd = block.timestamp + timeoutPeriod;\n\n        emit Bid(highBidder, amount);\n    }\n\n    function withdraw() public returns (bool) {\n        uint256 amount = balanceOf[msg.sender];\n        if (amount > 0) {\n            // It is important to set this to zero because the recipient\n            // can call this function again as part of the receiving call\n            // before `send` returns.\n            balanceOf[msg.sender] = 0;\n\n            if (!payable(msg.sender).send(amount)) {\n                // No need to call throw here, just reset the amount owing\n                balanceOf[msg.sender] = amount;\n                return false;\n            }\n        }\n        return true;\n    }\n\n    function endAuction() public {\n        require(block.timestamp >= auctionEnd, \"Auction not yet ended.\");\n        require(!auctionEnded, \"auctionEnd has already been called.\");\n\n        auctionEnded = true;\n\n        payable(seller).transfer(balanceOf[highBidder]);\n    }\n}\n",
  "sourcePath": "/home/nhaga/dev/blockchain/ckb/projects/tasks/task7/auction/contracts/SimpleAuction.sol",
  "compiler": {
    "name": "solc",
    "version": "0.8.3+commit.8d00100c.Linux.g++"
  },
  "schemaVersion": "3.4.2",
  "updatedAt": "2021-08-12T07:18:04.593Z",
  "devdoc": {
    "kind": "dev",
    "methods": {},
    "version": 1
  },
  "userdoc": {
    "kind": "user",
    "methods": {},
    "version": 1
  }
}